:1000000012C021C020C01FC01EC01DC03CC042C5C0
:100010001AC019C018C017C016C015C014C013C02C
:1000200012C011C010C011241FBECFE5D4E0DEBF46
:10003000CDBF20E0A0E6B0E001C01D92A236B2071D
:10004000E1F702D02ECADCCF87B3876087BB88B3C5
:10005000887F88BB81B3837F81BB979882B38C6094
:1000600082BB8FB583608FBD8EB589608EBD8FB525
:1000700080688FBD85E090E09BBD8ABD89B78061B7
:1000800089BF7894FFCF1F920F920FB60F92112461
:100090008F939F938091600090916100019690935F
:1000A0006100809360008130910531F485E090E03B
:1000B0009BBD8ABDC298E7C48230910529F484E1D2
:1000C00090E09BBD8ABDDFC48330910529F489E2AD
:1000D00090E09BBD8ABDD7C48430910529F48EE39E
:1000E00090E09BBD8ABDCFC48530910529F482E59F
:1000F00090E09BBD8ABDC7C48630910529F487E690
:1001000090E09BBD8ABDBFC48730910529F48BE781
:1001100090E09BBD8ABDB7C48830910529F480E981
:1001200090E09BBD8ABDAFC48930910529F484EA73
:1001300090E09BBD8ABDA7C48A30910529F488EB65
:1001400090E09BBD8ABD9FC48B30910529F48CEC57
:1001500090E09BBD8ABD97C48C30910529F480EE58
:1001600090E09BBD8ABD8FC48D30910529F485EF49
:1001700090E09BBD8ABD87C48E30910529F488E04C
:1001800091E09BBD8ABD7FC48F30910529F48CE13D
:1001900091E09BBD8ABD77C48031910529F480E34D
:1001A00091E09BBD8ABD6FC48131910529F484E43F
:1001B00091E09BBD8ABD67C48231910529F487E532
:1001C00091E09BBD8ABD5FC48331910529F48AE625
:1001D00091E09BBD8ABD57C48431910529F48EE717
:1001E00091E09BBD8ABD4FC48531910529F481E919
:1001F00091E09BBD8ABD47C48631910529F483EA0D
:1002000091E09BBD8ABD3FC48731910529F486EBFF
:1002100091E09BBD8ABD37C48831910529F489ECF2
:1002200091E09BBD8ABD2FC48931910529F48BEDE6
:1002300091E09BBD8ABD27C48A31910529F48DEEDA
:1002400091E09BBD8ABD1FC48B31910529F48FEFCE
:1002500091E09BBD8ABD17C48C31910529F481E1E1
:1002600092E09BBD8ABD0FC48D31910529F482E2D5
:1002700092E09BBD8ABD07C48E31910529F483E3CA
:1002800092E09BBD8ABDFFC38F31910529F485E4BF
:1002900092E09BBD8ABDF7C38032910529F485E5C4
:1002A00092E09BBD8ABDEFC38132910529F486E6B9
:1002B00092E09BBD8ABDE7C38232910529F486E7AF
:1002C00092E09BBD8ABDDFC38332910529F486E8A5
:1002D00092E09BBD8ABDD7C38432910529F486E99B
:1002E00092E09BBD8ABDCFC38532910529F486EA91
:1002F00092E09BBD8ABDC7C38632910529F485EB88
:1003000092E09BBD8ABDBFC38732910529F484EC7E
:1003100092E09BBD8ABDB7C38832910529F483ED75
:1003200092E09BBD8ABDAFC38932910529F481EE6D
:1003300092E09BBD8ABDA7C38A32910529F48FEE56
:1003400092E09BBD8ABD9FC38B32910529F48DEF4E
:1003500092E09BBD8ABD97C38C32910529F48AE057
:1003600093E09BBD8ABD8FC38D32910529F488E14E
:1003700093E09BBD8ABD87C38E32910529F484E248
:1003800093E09BBD8ABD7FC38F32910529F481E341
:1003900093E09BBD8ABD77C38033910529F48DE33B
:1003A00093E09BBD8ABD6FC38133910529F489E435
:1003B00093E09BBD8ABD67C38233910529F485E52F
:1003C00093E09BBD8ABD5FC38333910529F480E62A
:1003D00093E09BBD8ABD57C38433910529F48BE616
:1003E00093E09BBD8ABD4FC38533910529F485E712
:1003F00093E09BBD8ABD47C38633910529F48FE7FF
:1004000093E09BBD8ABD3FC38733910529F489E8FA
:1004100093E09BBD8ABD37C38833910529F482E9F7
:1004200093E09BBD8ABD2FC38933910529F48BE9E5
:1004300093E09BBD8ABD27C38A33910529F484EAE2
:1004400093E09BBD8ABD1FC38B33910529F48CEAD1
:1004500093E09BBD8ABD17C38C33910529F484EBCF
:1004600093E09BBD8ABD0FC38D33910529F48CEBBE
:1004700093E09BBD8ABD07C38E33910529F483ECBD
:1004800093E09BBD8ABDFFC28F33910529F489ECAF
:1004900093E09BBD8ABDF7C28034910529F480EDBD
:1004A00093E09BBD8ABDEFC28134910529F486EDAE
:1004B00093E09BBD8ABDE7C28234910529F48BEDA0
:1004C00093E09BBD8ABDDFC28334910529F480EEA1
:1004D00093E09BBD8ABDD7C28434910529F485EE93
:1004E00093E09BBD8ABDCFC28534910529F489EE86
:1004F00093E09BBD8ABDC7C28634910529F48DEE79
:1005000093E09BBD8ABDBFC28734910529F481EF7A
:1005100093E09BBD8ABDB7C28834910529F484EF6E
:1005200093E09BBD8ABDAFC28934910529F487EF62
:1005300093E09BBD8ABDA7C28A34910529F489EF57
:1005400093E09BBD8ABD9FC28B34910529F48BEF4C
:1005500093E09BBD8ABD97C28C34910529F48CEF42
:1005600093E09BBD8ABD8FC28D34910529F48DEF38
:1005700093E09BBD8ABD87C28E34910529F48EEF2E
:1005800093E09BBD8ABD7FC28F34910529F48EEF25
:1005900093E09BBD8ABD77C28035910529F48EEF2B
:1005A00093E09BBD8ABD6FC28135910529F48DEF23
:1005B00093E09BBD8ABD67C28235910529F48CEF1B
:1005C00093E09BBD8ABD5FC28335910529F48BEF13
:1005D00093E09BBD8ABD57C28435910529F489EF0C
:1005E00093E09BBD8ABD4FC28535910529F487EF05
:1005F00093E09BBD8ABD47C28635910529F484EFFF
:1006000093E09BBD8ABD3FC28735910529F481EFF8
:1006100093E09BBD8ABD37C28835910529F48DEEE4
:1006200093E09BBD8ABD2FC28935910529F489EEDF
:1006300093E09BBD8ABD27C28A35910529F485EEDA
:1006400093E09BBD8ABD1FC28B35910529F480EED6
:1006500093E09BBD8ABD17C28C35910529F48BEDC3
:1006600093E09BBD8ABD0FC28D35910529F486EDBF
:1006700093E09BBD8ABD07C28E35910529F480EDBC
:1006800093E09BBD8ABDFFC18F35910529F489ECAC
:1006900093E09BBD8ABDF7C18036910529F483ECB8
:1006A00093E09BBD8ABDEFC18136910529F48CEBA7
:1006B00093E09BBD8ABDE7C18236910529F484EBA6
:1006C00093E09BBD8ABDDFC18336910529F48CEA96
:1006D00093E09BBD8ABDD7C18436910529F484EA95
:1006E00093E09BBD8ABDCFC18536910529F48BE986
:1006F00093E09BBD8ABDC7C18636910529F482E986
:1007000093E09BBD8ABDBFC18736910529F489E876
:1007100093E09BBD8ABDB7C18836910529F48FE768
:1007200093E09BBD8ABDAFC18936910529F485E769
:1007300093E09BBD8ABDA7C18A36910529F48BE65B
:1007400093E09BBD8ABD9FC18B36910529F480E65D
:1007500093E09BBD8ABD97C18C36910529F485E550
:1007600093E09BBD8ABD8FC18D36910529F489E444
:1007700093E09BBD8ABD87C18E36910529F48DE338
:1007800093E09BBD8ABD7FC18F36910529F481E33B
:1007900093E09BBD8ABD77C18037910529F484E23F
:1007A00093E09BBD8ABD6FC18137910529F488E133
:1007B00093E09BBD8ABD67C18237910529F48AE029
:1007C00093E09BBD8ABD5FC18337910529F48DEF0E
:1007D00092E09BBD8ABD57C18437910529F48FEE05
:1007E00092E09BBD8ABD4FC18537910529F481EE0A
:1007F00092E09BBD8ABD47C18637910529F483ED00
:1008000092E09BBD8ABD3FC18737910529F484ECF6
:1008100092E09BBD8ABD37C18837910529F485EBED
:1008200092E09BBD8ABD2FC18937910529F486EAE4
:1008300092E09BBD8ABD27C18A37910529F486E9DC
:1008400092E09BBD8ABD1FC18B37910529F486E8D4
:1008500092E09BBD8ABD17C18C37910529F486E7CC
:1008600092E09BBD8ABD0FC18D37910529F485E5C6
:1008700092E09BBD8ABD07C18E37910529F485E4BE
:1008800092E09BBD8ABDFFC08F37910529F483E3B9
:1008900092E09BBD8ABDF7C08038910529F482E2C1
:1008A00092E09BBD8ABDEFC08138910529F481E1BA
:1008B00092E09BBD8ABDE7C08238910529F48FEF95
:1008C00091E09BBD8ABDDFC08338910529F48DEE90
:1008D00091E09BBD8ABDD7C08438910529F48BED8A
:1008E00091E09BBD8ABDCFC08538910529F489EC84
:1008F00091E09BBD8ABDC7C08638910529F486EB7F
:1009000091E09BBD8ABDBFC08738910529F483EA79
:1009100091E09BBD8ABDB7C08838910529F481E973
:1009200091E09BBD8ABDAFC08938910529F48EE75F
:1009300091E09BBD8ABDA7C08A38910529F48AE65B
:1009400091E09BBD8ABD9FC08B38910529F487E556
:1009500091E09BBD8ABD97C08C38910529F484E451
:1009600091E09BBD8ABD8FC08D38910529F480E34D
:1009700091E09BBD8ABD87C08E38910529F48CE13A
:1009800091E09BBD8ABD7FC08F38910529F488E036
:1009900091E09BBD8ABD77C08039910529F485EF30
:1009A00090E09BBD8ABD6FC08139910529F480EE2E
:1009B00090E09BBD8ABD67C08239910529F48CEC1B
:1009C00090E09BBD8ABD5FC08339910529F488EB17
:1009D00090E09BBD8ABD57C08439910529F484EA13
:1009E00090E09BBD8ABD4FC08539910529F480E90F
:1009F00090E09BBD8ABD47C08639910529F48CE7FC
:100A000090E09BBD8ABD3FC08739910529F487E6F8
:100A100090E09BBD8ABD37C08839910529F482E5F5
:100A200090E09BBD8ABD2FC08939910529F48EE3E2
:100A300090E09BBD8ABD27C08A39910529F489E2DF
:100A400090E09BBD8ABD1FC08B39910529F484E1DC
:100A500090E09BBD8ABD17C08C399105A1F485E05B
:100A600090E099BD88BD10926100109260008FB532
:100A700080628FBD89B78F7E89BF89B7886089BF43
:100A80008FB58F778FBD9F918F910F900FBE0F9075
:100A90001F9018951F920F920FB60F9211248F93EB
:100AA0009F93809160009091610001969093610006
:100AB000809360008130910531F485E090E099BD2C
:100AC00088BDC198E7C48230910529F484E190E0A3
:100AD00099BD88BDDFC48330910529F489E290E097
:100AE00099BD88BDD7C48430910529F48EE390E088
:100AF00099BD88BDCFC48530910529F482E590E089
:100B000099BD88BDC7C48630910529F487E690E079
:100B100099BD88BDBFC48730910529F48BE790E06B
:100B200099BD88BDB7C48830910529F480E990E06B
:100B300099BD88BDAFC48930910529F484EA90E05D
:100B400099BD88BDA7C48A30910529F488EB90E04F
:100B500099BD88BD9FC48B30910529F48CEC90E041
:100B600099BD88BD97C48C30910529F480EE90E042
:100B700099BD88BD8FC48D30910529F485EF90E033
:100B800099BD88BD87C48E30910529F488E091E035
:100B900099BD88BD7FC48F30910529F48CE191E027
:100BA00099BD88BD77C48031910529F480E391E037
:100BB00099BD88BD6FC48131910529F484E491E029
:100BC00099BD88BD67C48231910529F487E591E01C
:100BD00099BD88BD5FC48331910529F48AE691E00F
:100BE00099BD88BD57C48431910529F48EE791E001
:100BF00099BD88BD4FC48531910529F481E991E003
:100C000099BD88BD47C48631910529F483EA91E0F6
:100C100099BD88BD3FC48731910529F486EB91E0E9
:100C200099BD88BD37C48831910529F489EC91E0DC
:100C300099BD88BD2FC48931910529F48BED91E0D0
:100C400099BD88BD27C48A31910529F48DEE91E0C4
:100C500099BD88BD1FC48B31910529F48FEF91E0B8
:100C600099BD88BD17C48C31910529F481E192E0CA
:100C700099BD88BD0FC48D31910529F482E292E0BF
:100C800099BD88BD07C48E31910529F483E392E0B4
:100C900099BD88BDFFC38F31910529F485E492E0A9
:100CA00099BD88BDF7C38032910529F485E592E0AE
:100CB00099BD88BDEFC38132910529F486E692E0A3
:100CC00099BD88BDE7C38232910529F486E792E099
:100CD00099BD88BDDFC38332910529F486E892E08F
:100CE00099BD88BDD7C38432910529F486E992E085
:100CF00099BD88BDCFC38532910529F486EA92E07B
:100D000099BD88BDC7C38632910529F485EB92E071
:100D100099BD88BDBFC38732910529F484EC92E068
:100D200099BD88BDB7C38832910529F483ED92E05F
:100D300099BD88BDAFC38932910529F481EE92E057
:100D400099BD88BDA7C38A32910529F48FEE92E040
:100D500099BD88BD9FC38B32910529F48DEF92E038
:100D600099BD88BD97C38C32910529F48AE093E040
:100D700099BD88BD8FC38D32910529F488E193E038
:100D800099BD88BD87C38E32910529F484E293E032
:100D900099BD88BD7FC38F32910529F481E393E02B
:100DA00099BD88BD77C38033910529F48DE393E025
:100DB00099BD88BD6FC38133910529F489E493E01F
:100DC00099BD88BD67C38233910529F485E593E019
:100DD00099BD88BD5FC38333910529F480E693E014
:100DE00099BD88BD57C38433910529F48BE693E000
:100DF00099BD88BD4FC38533910529F485E793E0FC
:100E000099BD88BD47C38633910529F48FE793E0E8
:100E100099BD88BD3FC38733910529F489E893E0E4
:100E200099BD88BD37C38833910529F482E993E0E1
:100E300099BD88BD2FC38933910529F48BE993E0CF
:100E400099BD88BD27C38A33910529F484EA93E0CC
:100E500099BD88BD1FC38B33910529F48CEA93E0BB
:100E600099BD88BD17C38C33910529F484EB93E0B9
:100E700099BD88BD0FC38D33910529F48CEB93E0A8
:100E800099BD88BD07C38E33910529F483EC93E0A7
:100E900099BD88BDFFC28F33910529F489EC93E099
:100EA00099BD88BDF7C28034910529F480ED93E0A7
:100EB00099BD88BDEFC28134910529F486ED93E098
:100EC00099BD88BDE7C28234910529F48BED93E08A
:100ED00099BD88BDDFC28334910529F480EE93E08B
:100EE00099BD88BDD7C28434910529F485EE93E07D
:100EF00099BD88BDCFC28534910529F489EE93E070
:100F000099BD88BDC7C28634910529F48DEE93E062
:100F100099BD88BDBFC28734910529F481EF93E064
:100F200099BD88BDB7C28834910529F484EF93E058
:100F300099BD88BDAFC28934910529F487EF93E04C
:100F400099BD88BDA7C28A34910529F489EF93E041
:100F500099BD88BD9FC28B34910529F48BEF93E036
:100F600099BD88BD97C28C34910529F48CEF93E02C
:100F700099BD88BD8FC28D34910529F48DEF93E022
:100F800099BD88BD87C28E34910529F48EEF93E018
:100F900099BD88BD7FC28F34910529F48EEF93E00F
:100FA00099BD88BD77C28035910529F48EEF93E015
:100FB00099BD88BD6FC28135910529F48DEF93E00D
:100FC00099BD88BD67C28235910529F48CEF93E005
:100FD00099BD88BD5FC28335910529F48BEF93E0FD
:100FE00099BD88BD57C28435910529F489EF93E0F6
:100FF00099BD88BD4FC28535910529F487EF93E0EF
:1010000099BD88BD47C28635910529F484EF93E0E8
:1010100099BD88BD3FC28735910529F481EF93E0E2
:1010200099BD88BD37C28835910529F48DEE93E0CE
:1010300099BD88BD2FC28935910529F489EE93E0C9
:1010400099BD88BD27C28A35910529F485EE93E0C4
:1010500099BD88BD1FC28B35910529F480EE93E0C0
:1010600099BD88BD17C28C35910529F48BED93E0AD
:1010700099BD88BD0FC28D35910529F486ED93E0A9
:1010800099BD88BD07C28E35910529F480ED93E0A6
:1010900099BD88BDFFC18F35910529F489EC93E096
:1010A00099BD88BDF7C18036910529F483EC93E0A2
:1010B00099BD88BDEFC18136910529F48CEB93E091
:1010C00099BD88BDE7C18236910529F484EB93E090
:1010D00099BD88BDDFC18336910529F48CEA93E080
:1010E00099BD88BDD7C18436910529F484EA93E07F
:1010F00099BD88BDCFC18536910529F48BE993E070
:1011000099BD88BDC7C18636910529F482E993E06F
:1011100099BD88BDBFC18736910529F489E893E060
:1011200099BD88BDB7C18836910529F48FE793E052
:1011300099BD88BDAFC18936910529F485E793E053
:1011400099BD88BDA7C18A36910529F48BE693E045
:1011500099BD88BD9FC18B36910529F480E693E047
:1011600099BD88BD97C18C36910529F485E593E03A
:1011700099BD88BD8FC18D36910529F489E493E02E
:1011800099BD88BD87C18E36910529F48DE393E022
:1011900099BD88BD7FC18F36910529F481E393E025
:1011A00099BD88BD77C18037910529F484E293E029
:1011B00099BD88BD6FC18137910529F488E193E01D
:1011C00099BD88BD67C18237910529F48AE093E013
:1011D00099BD88BD5FC18337910529F48DEF92E0F9
:1011E00099BD88BD57C18437910529F48FEE92E0EF
:1011F00099BD88BD4FC18537910529F481EE92E0F4
:1012000099BD88BD47C18637910529F483ED92E0E9
:1012100099BD88BD3FC18737910529F484EC92E0E0
:1012200099BD88BD37C18837910529F485EB92E0D7
:1012300099BD88BD2FC18937910529F486EA92E0CE
:1012400099BD88BD27C18A37910529F486E992E0C6
:1012500099BD88BD1FC18B37910529F486E892E0BE
:1012600099BD88BD17C18C37910529F486E792E0B6
:1012700099BD88BD0FC18D37910529F485E592E0B0
:1012800099BD88BD07C18E37910529F485E492E0A8
:1012900099BD88BDFFC08F37910529F483E392E0A3
:1012A00099BD88BDF7C08038910529F482E292E0AB
:1012B00099BD88BDEFC08138910529F481E192E0A4
:1012C00099BD88BDE7C08238910529F48FEF91E080
:1012D00099BD88BDDFC08338910529F48DEE91E07A
:1012E00099BD88BDD7C08438910529F48BED91E074
:1012F00099BD88BDCFC08538910529F489EC91E06E
:1013000099BD88BDC7C08638910529F486EB91E068
:1013100099BD88BDBFC08738910529F483EA91E063
:1013200099BD88BDB7C08838910529F481E991E05D
:1013300099BD88BDAFC08938910529F48EE791E049
:1013400099BD88BDA7C08A38910529F48AE691E045
:1013500099BD88BD9FC08B38910529F487E591E040
:1013600099BD88BD97C08C38910529F484E491E03B
:1013700099BD88BD8FC08D38910529F480E391E037
:1013800099BD88BD87C08E38910529F48CE191E024
:1013900099BD88BD7FC08F38910529F488E091E020
:1013A00099BD88BD77C08039910529F485EF90E01B
:1013B00099BD88BD6FC08139910529F480EE90E018
:1013C00099BD88BD67C08239910529F48CEC90E005
:1013D00099BD88BD5FC08339910529F488EB90E001
:1013E00099BD88BD57C08439910529F484EA90E0FD
:1013F00099BD88BD4FC08539910529F480E990E0F9
:1014000099BD88BD47C08639910529F48CE790E0E5
:1014100099BD88BD3FC08739910529F487E690E0E2
:1014200099BD88BD37C08839910529F482E590E0DF
:1014300099BD88BD2FC08939910529F48EE390E0CC
:1014400099BD88BD27C08A39910529F489E290E0C9
:1014500099BD88BD1FC08B39910529F484E190E0C6
:1014600099BD88BD17C08C399105A1F485E090E045
:101470009BBD8ABD10926100109260008FB580689C
:101480008FBD89B7877F89BF89B7806189BF8FB5D5
:101490008F7D8FBD9F918F910F900FBE0F901F90EA
:0614A0001895F894FFCF3F
:00000001FF
